{
  "_format": "hh-sol-artifact-1",
  "contractName": "YourCollectible",
  "sourceName": "contracts/YourCollectible.sol",
  "abi": [
    {
      "inputs": [],
      "stateMutability": "nonpayable",
      "type": "constructor"
    },
    {
      "anonymous": false,
      "inputs": [
        {
          "indexed": true,
          "internalType": "address",
          "name": "owner",
          "type": "address"
        },
        {
          "indexed": true,
          "internalType": "address",
          "name": "approved",
          "type": "address"
        },
        {
          "indexed": true,
          "internalType": "uint256",
          "name": "tokenId",
          "type": "uint256"
        }
      ],
      "name": "Approval",
      "type": "event"
    },
    {
      "anonymous": false,
      "inputs": [
        {
          "indexed": true,
          "internalType": "address",
          "name": "owner",
          "type": "address"
        },
        {
          "indexed": true,
          "internalType": "address",
          "name": "operator",
          "type": "address"
        },
        {
          "indexed": false,
          "internalType": "bool",
          "name": "approved",
          "type": "bool"
        }
      ],
      "name": "ApprovalForAll",
      "type": "event"
    },
    {
      "anonymous": false,
      "inputs": [
        {
          "indexed": true,
          "internalType": "address",
          "name": "previousOwner",
          "type": "address"
        },
        {
          "indexed": true,
          "internalType": "address",
          "name": "newOwner",
          "type": "address"
        }
      ],
      "name": "OwnershipTransferred",
      "type": "event"
    },
    {
      "anonymous": false,
      "inputs": [
        {
          "indexed": true,
          "internalType": "address",
          "name": "from",
          "type": "address"
        },
        {
          "indexed": true,
          "internalType": "address",
          "name": "to",
          "type": "address"
        },
        {
          "indexed": true,
          "internalType": "uint256",
          "name": "tokenId",
          "type": "uint256"
        }
      ],
      "name": "Transfer",
      "type": "event"
    },
    {
      "inputs": [
        {
          "internalType": "address",
          "name": "to",
          "type": "address"
        },
        {
          "internalType": "uint256",
          "name": "tokenId",
          "type": "uint256"
        }
      ],
      "name": "approve",
      "outputs": [],
      "stateMutability": "nonpayable",
      "type": "function"
    },
    {
      "inputs": [
        {
          "internalType": "address",
          "name": "owner",
          "type": "address"
        }
      ],
      "name": "balanceOf",
      "outputs": [
        {
          "internalType": "uint256",
          "name": "",
          "type": "uint256"
        }
      ],
      "stateMutability": "view",
      "type": "function"
    },
    {
      "inputs": [
        {
          "internalType": "uint256",
          "name": "tokenId",
          "type": "uint256"
        }
      ],
      "name": "getApproved",
      "outputs": [
        {
          "internalType": "address",
          "name": "",
          "type": "address"
        }
      ],
      "stateMutability": "view",
      "type": "function"
    },
    {
      "inputs": [
        {
          "internalType": "address",
          "name": "owner",
          "type": "address"
        },
        {
          "internalType": "address",
          "name": "operator",
          "type": "address"
        }
      ],
      "name": "isApprovedForAll",
      "outputs": [
        {
          "internalType": "bool",
          "name": "",
          "type": "bool"
        }
      ],
      "stateMutability": "view",
      "type": "function"
    },
    {
      "inputs": [
        {
          "internalType": "address",
          "name": "to",
          "type": "address"
        },
        {
          "internalType": "string",
          "name": "tokenURI",
          "type": "string"
        }
      ],
      "name": "mintItem",
      "outputs": [
        {
          "internalType": "uint256",
          "name": "",
          "type": "uint256"
        }
      ],
      "stateMutability": "nonpayable",
      "type": "function"
    },
    {
      "inputs": [],
      "name": "name",
      "outputs": [
        {
          "internalType": "string",
          "name": "",
          "type": "string"
        }
      ],
      "stateMutability": "view",
      "type": "function"
    },
    {
      "inputs": [],
      "name": "owner",
      "outputs": [
        {
          "internalType": "address",
          "name": "",
          "type": "address"
        }
      ],
      "stateMutability": "view",
      "type": "function"
    },
    {
      "inputs": [
        {
          "internalType": "uint256",
          "name": "tokenId",
          "type": "uint256"
        }
      ],
      "name": "ownerOf",
      "outputs": [
        {
          "internalType": "address",
          "name": "",
          "type": "address"
        }
      ],
      "stateMutability": "view",
      "type": "function"
    },
    {
      "inputs": [],
      "name": "renounceOwnership",
      "outputs": [],
      "stateMutability": "nonpayable",
      "type": "function"
    },
    {
      "inputs": [
        {
          "internalType": "address",
          "name": "from",
          "type": "address"
        },
        {
          "internalType": "address",
          "name": "to",
          "type": "address"
        },
        {
          "internalType": "uint256",
          "name": "tokenId",
          "type": "uint256"
        }
      ],
      "name": "safeTransferFrom",
      "outputs": [],
      "stateMutability": "nonpayable",
      "type": "function"
    },
    {
      "inputs": [
        {
          "internalType": "address",
          "name": "from",
          "type": "address"
        },
        {
          "internalType": "address",
          "name": "to",
          "type": "address"
        },
        {
          "internalType": "uint256",
          "name": "tokenId",
          "type": "uint256"
        },
        {
          "internalType": "bytes",
          "name": "_data",
          "type": "bytes"
        }
      ],
      "name": "safeTransferFrom",
      "outputs": [],
      "stateMutability": "nonpayable",
      "type": "function"
    },
    {
      "inputs": [
        {
          "internalType": "address",
          "name": "operator",
          "type": "address"
        },
        {
          "internalType": "bool",
          "name": "approved",
          "type": "bool"
        }
      ],
      "name": "setApprovalForAll",
      "outputs": [],
      "stateMutability": "nonpayable",
      "type": "function"
    },
    {
      "inputs": [
        {
          "internalType": "bytes4",
          "name": "interfaceId",
          "type": "bytes4"
        }
      ],
      "name": "supportsInterface",
      "outputs": [
        {
          "internalType": "bool",
          "name": "",
          "type": "bool"
        }
      ],
      "stateMutability": "view",
      "type": "function"
    },
    {
      "inputs": [],
      "name": "symbol",
      "outputs": [
        {
          "internalType": "string",
          "name": "",
          "type": "string"
        }
      ],
      "stateMutability": "view",
      "type": "function"
    },
    {
      "inputs": [
        {
          "internalType": "uint256",
          "name": "tokenId",
          "type": "uint256"
        }
      ],
      "name": "tokenURI",
      "outputs": [
        {
          "internalType": "string",
          "name": "",
          "type": "string"
        }
      ],
      "stateMutability": "view",
      "type": "function"
    },
    {
      "inputs": [
        {
          "internalType": "address",
          "name": "from",
          "type": "address"
        },
        {
          "internalType": "address",
          "name": "to",
          "type": "address"
        },
        {
          "internalType": "uint256",
          "name": "tokenId",
          "type": "uint256"
        }
      ],
      "name": "transferFrom",
      "outputs": [],
      "stateMutability": "nonpayable",
      "type": "function"
    },
    {
      "inputs": [
        {
          "internalType": "address",
          "name": "newOwner",
          "type": "address"
        }
      ],
      "name": "transferOwnership",
      "outputs": [],
      "stateMutability": "nonpayable",
      "type": "function"
    }
  ],
  "bytecode": "0x60806040523480156200001157600080fd5b50604080518082018252600f81526e596f7572436f6c6c65637469626c6560881b6020808301918252835180850190945260038452622ca1a160e91b9084015281519192916200006491600091620000f3565b5080516200007a906001906020840190620000f3565b50505062000097620000916200009d60201b60201c565b620000a1565b620001d6565b3390565b600780546001600160a01b038381166001600160a01b0319831681179093556040519116919082907f8be0079c531659141344cd1fd0a4f28419497f9722a3daafe3b4186f6b6457e090600090a35050565b828054620001019062000199565b90600052602060002090601f01602090048101928262000125576000855562000170565b82601f106200014057805160ff191683800117855562000170565b8280016001018555821562000170579182015b828111156200017057825182559160200191906001019062000153565b506200017e92915062000182565b5090565b5b808211156200017e576000815560010162000183565b600181811c90821680620001ae57607f821691505b60208210811415620001d057634e487b7160e01b600052602260045260246000fd5b50919050565b6118bd80620001e66000396000f3fe608060405234801561001057600080fd5b506004361061010b5760003560e01c806370a08231116100a2578063a22cb46511610071578063a22cb4651461021b578063b88d4fde1461022e578063c87b56dd14610241578063e985e9c514610254578063f2fde38b1461029057600080fd5b806370a08231146101e7578063715018a6146101fa5780638da5cb5b1461020257806395d89b411461021357600080fd5b8063110bcd45116100de578063110bcd451461018d57806323b872dd146101ae57806342842e0e146101c15780636352211e146101d457600080fd5b806301ffc9a71461011057806306fdde0314610138578063081812fc1461014d578063095ea7b314610178575b600080fd5b61012361011e3660046115b8565b6102a3565b60405190151581526020015b60405180910390f35b6101406102f5565b60405161012f91906116a0565b61016061015b3660046115f0565b610387565b6040516001600160a01b03909116815260200161012f565b61018b61018636600461158f565b610414565b005b6101a061019b366004611530565b61052a565b60405190815260200161012f565b61018b6101bc366004611442565b610562565b61018b6101cf366004611442565b610593565b6101606101e23660046115f0565b6105ae565b6101a06101f53660046113f6565b610625565b61018b6106ac565b6007546001600160a01b0316610160565b610140610712565b61018b6102293660046114f6565b610721565b61018b61023c36600461147d565b610730565b61014061024f3660046115f0565b610768565b610123610262366004611410565b6001600160a01b03918216600090815260056020908152604080832093909416825291909152205460ff1690565b61018b61029e3660046113f6565b6108df565b60006001600160e01b031982166380ac58cd60e01b14806102d457506001600160e01b03198216635b5e139f60e01b145b806102ef57506301ffc9a760e01b6001600160e01b03198316145b92915050565b606060008054610304906117c5565b80601f0160208091040260200160405190810160405280929190818152602001828054610330906117c5565b801561037d5780601f106103525761010080835404028352916020019161037d565b820191906000526020600020905b81548152906001019060200180831161036057829003601f168201915b5050505050905090565b6000610392826109aa565b6103f85760405162461bcd60e51b815260206004820152602c60248201527f4552433732313a20617070726f76656420717565727920666f72206e6f6e657860448201526b34b9ba32b73a103a37b5b2b760a11b60648201526084015b60405180910390fd5b506000908152600460205260409020546001600160a01b031690565b600061041f826105ae565b9050806001600160a01b0316836001600160a01b0316141561048d5760405162461bcd60e51b815260206004820152602160248201527f4552433732313a20617070726f76616c20746f2063757272656e74206f776e656044820152603960f91b60648201526084016103ef565b336001600160a01b03821614806104a957506104a98133610262565b61051b5760405162461bcd60e51b815260206004820152603860248201527f4552433732313a20617070726f76652063616c6c6572206973206e6f74206f7760448201527f6e6572206e6f7220617070726f76656420666f7220616c6c000000000000000060648201526084016103ef565b61052583836109c7565b505050565b600061053a600880546001019055565b600061054560085490565b90506105518482610a35565b61055b8184610b68565b9392505050565b61056c3382610bf3565b6105885760405162461bcd60e51b81526004016103ef90611705565b610525838383610cd9565b61052583838360405180602001604052806000815250610730565b6000818152600260205260408120546001600160a01b0316806102ef5760405162461bcd60e51b815260206004820152602960248201527f4552433732313a206f776e657220717565727920666f72206e6f6e657869737460448201526832b73a103a37b5b2b760b91b60648201526084016103ef565b60006001600160a01b0382166106905760405162461bcd60e51b815260206004820152602a60248201527f4552433732313a2062616c616e636520717565727920666f7220746865207a65604482015269726f206164647265737360b01b60648201526084016103ef565b506001600160a01b031660009081526003602052604090205490565b6007546001600160a01b031633146107065760405162461bcd60e51b815260206004820181905260248201527f4f776e61626c653a2063616c6c6572206973206e6f7420746865206f776e657260448201526064016103ef565b6107106000610e79565b565b606060018054610304906117c5565b61072c338383610ecb565b5050565b61073a3383610bf3565b6107565760405162461bcd60e51b81526004016103ef90611705565b61076284848484610f9a565b50505050565b6060610773826109aa565b6107d95760405162461bcd60e51b815260206004820152603160248201527f45524337323155524953746f726167653a2055524920717565727920666f72206044820152703737b732bc34b9ba32b73a103a37b5b2b760791b60648201526084016103ef565b600082815260066020526040812080546107f2906117c5565b80601f016020809104026020016040519081016040528092919081815260200182805461081e906117c5565b801561086b5780601f106108405761010080835404028352916020019161086b565b820191906000526020600020905b81548152906001019060200180831161084e57829003601f168201915b50505050509050600061088960408051602081019091526000815290565b905080516000141561089c575092915050565b8151156108ce5780826040516020016108b6929190611634565b60405160208183030381529060405292505050919050565b6108d784610fcd565b949350505050565b6007546001600160a01b031633146109395760405162461bcd60e51b815260206004820181905260248201527f4f776e61626c653a2063616c6c6572206973206e6f7420746865206f776e657260448201526064016103ef565b6001600160a01b03811661099e5760405162461bcd60e51b815260206004820152602660248201527f4f776e61626c653a206e6577206f776e657220697320746865207a65726f206160448201526564647265737360d01b60648201526084016103ef565b6109a781610e79565b50565b6000908152600260205260409020546001600160a01b0316151590565b600081815260046020526040902080546001600160a01b0319166001600160a01b03841690811790915581906109fc826105ae565b6001600160a01b03167f8c5be1e5ebec7d5bd14f71427d1e84f3dd0314c0f7b2291e5b200ac8c7c3b92560405160405180910390a45050565b6001600160a01b038216610a8b5760405162461bcd60e51b815260206004820181905260248201527f4552433732313a206d696e7420746f20746865207a65726f206164647265737360448201526064016103ef565b610a94816109aa565b15610ae15760405162461bcd60e51b815260206004820152601c60248201527f4552433732313a20746f6b656e20616c7265616479206d696e7465640000000060448201526064016103ef565b6001600160a01b0382166000908152600360205260408120805460019290610b0a908490611756565b909155505060008181526002602052604080822080546001600160a01b0319166001600160a01b03861690811790915590518392907fddf252ad1be2c89b69c2b068fc378daa952ba7f163c4a11628f55a4df523b3ef908290a45050565b610b71826109aa565b610bd45760405162461bcd60e51b815260206004820152602e60248201527f45524337323155524953746f726167653a2055524920736574206f66206e6f6e60448201526d32bc34b9ba32b73a103a37b5b2b760911b60648201526084016103ef565b60008281526006602090815260409091208251610525928401906112cb565b6000610bfe826109aa565b610c5f5760405162461bcd60e51b815260206004820152602c60248201527f4552433732313a206f70657261746f7220717565727920666f72206e6f6e657860448201526b34b9ba32b73a103a37b5b2b760a11b60648201526084016103ef565b6000610c6a836105ae565b9050806001600160a01b0316846001600160a01b03161480610ca55750836001600160a01b0316610c9a84610387565b6001600160a01b0316145b806108d757506001600160a01b0380821660009081526005602090815260408083209388168352929052205460ff166108d7565b826001600160a01b0316610cec826105ae565b6001600160a01b031614610d545760405162461bcd60e51b815260206004820152602960248201527f4552433732313a207472616e73666572206f6620746f6b656e2074686174206960448201526839903737ba1037bbb760b91b60648201526084016103ef565b6001600160a01b038216610db65760405162461bcd60e51b8152602060048201526024808201527f4552433732313a207472616e7366657220746f20746865207a65726f206164646044820152637265737360e01b60648201526084016103ef565b610dc16000826109c7565b6001600160a01b0383166000908152600360205260408120805460019290610dea908490611782565b90915550506001600160a01b0382166000908152600360205260408120805460019290610e18908490611756565b909155505060008181526002602052604080822080546001600160a01b0319166001600160a01b0386811691821790925591518493918716917fddf252ad1be2c89b69c2b068fc378daa952ba7f163c4a11628f55a4df523b3ef91a4505050565b600780546001600160a01b038381166001600160a01b0319831681179093556040519116919082907f8be0079c531659141344cd1fd0a4f28419497f9722a3daafe3b4186f6b6457e090600090a35050565b816001600160a01b0316836001600160a01b03161415610f2d5760405162461bcd60e51b815260206004820152601960248201527f4552433732313a20617070726f766520746f2063616c6c65720000000000000060448201526064016103ef565b6001600160a01b03838116600081815260056020908152604080832094871680845294825291829020805460ff191686151590811790915591519182527f17307eab39ab6107e8899845ad3d59bd9653f200f220920489ca2b5937696c31910160405180910390a3505050565b610fa5848484610cd9565b610fb1848484846110a4565b6107625760405162461bcd60e51b81526004016103ef906116b3565b6060610fd8826109aa565b61103c5760405162461bcd60e51b815260206004820152602f60248201527f4552433732314d657461646174613a2055524920717565727920666f72206e6f60448201526e3732bc34b9ba32b73a103a37b5b2b760891b60648201526084016103ef565b600061105360408051602081019091526000815290565b90506000815111611073576040518060200160405280600081525061055b565b8061107d846111b1565b60405160200161108e929190611634565b6040516020818303038152906040529392505050565b60006001600160a01b0384163b156111a657604051630a85bd0160e11b81526001600160a01b0385169063150b7a02906110e8903390899088908890600401611663565b602060405180830381600087803b15801561110257600080fd5b505af1925050508015611132575060408051601f3d908101601f1916820190925261112f918101906115d4565b60015b61118c573d808015611160576040519150601f19603f3d011682016040523d82523d6000602084013e611165565b606091505b5080516111845760405162461bcd60e51b81526004016103ef906116b3565b805181602001fd5b6001600160e01b031916630a85bd0160e11b1490506108d7565b506001949350505050565b6060816111d55750506040805180820190915260018152600360fc1b602082015290565b8160005b81156111ff57806111e981611800565b91506111f89050600a8361176e565b91506111d9565b60008167ffffffffffffffff81111561122857634e487b7160e01b600052604160045260246000fd5b6040519080825280601f01601f191660200182016040528015611252576020820181803683370190505b5090505b84156108d757611267600183611782565b9150611274600a8661181b565b61127f906030611756565b60f81b8183815181106112a257634e487b7160e01b600052603260045260246000fd5b60200101906001600160f81b031916908160001a9053506112c4600a8661176e565b9450611256565b8280546112d7906117c5565b90600052602060002090601f0160209004810192826112f9576000855561133f565b82601f1061131257805160ff191683800117855561133f565b8280016001018555821561133f579182015b8281111561133f578251825591602001919060010190611324565b5061134b92915061134f565b5090565b5b8082111561134b5760008155600101611350565b600067ffffffffffffffff8084111561137f5761137f61185b565b604051601f8501601f19908116603f011681019082821181831017156113a7576113a761185b565b816040528093508581528686860111156113c057600080fd5b858560208301376000602087830101525050509392505050565b80356001600160a01b03811681146113f157600080fd5b919050565b600060208284031215611407578081fd5b61055b826113da565b60008060408385031215611422578081fd5b61142b836113da565b9150611439602084016113da565b90509250929050565b600080600060608486031215611456578081fd5b61145f846113da565b925061146d602085016113da565b9150604084013590509250925092565b60008060008060808587031215611492578081fd5b61149b856113da565b93506114a9602086016113da565b925060408501359150606085013567ffffffffffffffff8111156114cb578182fd5b8501601f810187136114db578182fd5b6114ea87823560208401611364565b91505092959194509250565b60008060408385031215611508578182fd5b611511836113da565b915060208301358015158114611525578182fd5b809150509250929050565b60008060408385031215611542578182fd5b61154b836113da565b9150602083013567ffffffffffffffff811115611566578182fd5b8301601f81018513611576578182fd5b61158585823560208401611364565b9150509250929050565b600080604083850312156115a1578182fd5b6115aa836113da565b946020939093013593505050565b6000602082840312156115c9578081fd5b813561055b81611871565b6000602082840312156115e5578081fd5b815161055b81611871565b600060208284031215611601578081fd5b5035919050565b60008151808452611620816020860160208601611799565b601f01601f19169290920160200192915050565b60008351611646818460208801611799565b83519083019061165a818360208801611799565b01949350505050565b6001600160a01b038581168252841660208201526040810183905260806060820181905260009061169690830184611608565b9695505050505050565b60208152600061055b6020830184611608565b60208082526032908201527f4552433732313a207472616e7366657220746f206e6f6e20455243373231526560408201527131b2b4bb32b91034b6b83632b6b2b73a32b960711b606082015260800190565b60208082526031908201527f4552433732313a207472616e736665722063616c6c6572206973206e6f74206f6040820152701ddb995c881b9bdc88185c1c1c9bdd9959607a1b606082015260800190565b600082198211156117695761176961182f565b500190565b60008261177d5761177d611845565b500490565b6000828210156117945761179461182f565b500390565b60005b838110156117b457818101518382015260200161179c565b838111156107625750506000910152565b600181811c908216806117d957607f821691505b602082108114156117fa57634e487b7160e01b600052602260045260246000fd5b50919050565b60006000198214156118145761181461182f565b5060010190565b60008261182a5761182a611845565b500690565b634e487b7160e01b600052601160045260246000fd5b634e487b7160e01b600052601260045260246000fd5b634e487b7160e01b600052604160045260246000fd5b6001600160e01b0319811681146109a757600080fdfea2646970667358221220d77d8d8712c31db040a22d4d998e9061afcc579f05a15de0c468b5e0809361bd64736f6c63430008040033",
  "linkReferences": {},
  "deployedLinkReferences": {}
}